:02000000FD28D9
:10000600831203132D08F0002E08F100F10CF00CFA
:10001600F113F10CF00CF11370089500CF30970531
:1000260003302D05F2007208F000F00D7010F00D8F
:100036007010F00D7010F00D7010700897042F08F6
:10004600F0003008F100F10CF00CF113F10CF00C9B
:10005600F11370089B00CF309D0503302F05F20089
:100066007208F000F00D7010F00D7010F00D7010A9
:0E007600F00D701070089D0417141D14080082
:0E0084008312031328088A0027088200080050
:1000920083160313981690308312980083168717DD
:1000A200071383128C1E58281A08F00052280800E1
:1000B20083120313A501A6012E082602031D63283D
:1000C2002D08250203186928A50A0319A60A5D2826
:0200D200080024
:1000D40042208A110A128000840AA70A0319A80A76
:0800E400F003031D6A28080067
:1000EC004030831603139900181549206430AD0075
:0800FC000030AE00592008009D
:100104004130831203139F001F151F1D8A2887285F
:100114001E08F100F00183161E08F0040030F104FB
:020124000800D1
:10012600C030831603139F00413083129F000800DE
:10013600FF308316031392000C30831297000C30A5
:0E0146009D0095019B0191010430920008007C
:10015400831203132908AD002A08AE002B08AF0050
:0C0164002C08B0000320053088000800C3
:10017000831203132908AD002A08AE002B08AF0034
:0C0180002C08B00003200A3088000800A2
:10018C00831203132908AD002A08AE002B08AF0018
:0C019C002C08B000032009308800080087
:0E01A8000030831203138C1A0130F00008009F
:1001B60083120313AD01AE01AF01B0010320880124
:0201C60008002F
:1001C800831203132908AD002A08AE002B08AF00DC
:0C01D8002C08B00003200630880008004E
:1001E400831203131A08F100981CFA28181218161F
:0601F4007108F000080094
:1001FA00583083120313A0000230A100831688012D
:10020A00FF308500FF30860088308700831288011E
:10021A009B208030A9002530AA00AB01AC017620D2
:10022A009320822070088312A3007108A4000A3068
:10023A00AD000030AE00592002302402031D2729E8
:10024A00EE30230203182D292030A3000330A40026
:10025A0087193A2A861EEC29061EEC298719EC29E9
:10026A00061D6229061C6229861C6229861E6229CD
:10027A00061E622987196229EE30A9000230AA00F7
:10028A00EE30AB000230AC00AA2082207008831244
:10029A00A3007108A4000A30AD000030AE00592056
:1002AA0002302402031D5B29EE3023020318612960
:1002BA002030A3000330A4003529061C6A298618B9
:1002CA006929061969296A299129861E9129061E12
:1002DA009129871991292308A9002408AA0023082B
:1002EA00AB002408AC00AA20822070088312A30065
:1002FA007108A4000A30AD000030AE005920023067
:10030A002402031D8A29EE30230203189029203083
:10031A00A3000330A40062290619BE29061CBE29BF
:10032A00861CBE29861EBE29061EBE298719BE291D
:10033A002308A9002408AA002308AB002408AC005B
:10034A00E420822070088312A3007108A4000A30F6
:10035A00AD000030AE00592002302402031DB72937
:10036A00EE3023020318BD292030A3000330A40075
:10037A0091298618EB29061CEB29061DEB29861EF6
:10038A00EB29061EEB298719EB292308A900240863
:10039A00AA002308AB002408AC00C62082207008FB
:1003AA008312A3007108A4000A30AD000030AE0029
:1003BA00592002302402031DE429EE3023020318D7
:1003CA00EA292030A3000330A400BE292F29861A67
:1003DA000F2A061A0F2A87190F2A8430A900033018
:1003EA00AA008430AB000330AC00B820E830AD007E
:1003FA000330AE0059208430A9000330AA008430AB
:10040A00AB000330AC00C620F430AD000130AE00C2
:10041A005920EC29861A242A061E242A8719242AF6
:10042A008430A9000330AA008430AB000330AC004A
:10043A00C620F430AD000130AE0059200F2A861EC6
:10044A00392A061A392A8719392A8430A900033029
:10045A00AA008430AB000330AC00E420F430AD00D5
:10046A000130AE005920242A2D29DB20871DD82AE5
:10047A00D42070080319D72AF2207008A2009E2AF5
:10048A002008A9002108AA002008AB002108AC0016
:10049A00AA20D72A2008A9002108AA002008AB0010
:1004AA002108AC00B820D72A2008A9002108AA00F0
:1004BA002008AB002108AC00C620D72A2008A900D2
:1004CA002108AA002008AB002108AC00E420D72AA2
:1004DA00DB20D72A5830A0000230A100D72A8A3060
:1004EA00A0000230A100D72ABC30A0000230A1002F
:1004FA00D72AEE30A0000230A100D72A2030A0006F
:10050A000330A100D72A5230A0000330A100D72A15
:10051A008430A0000330A100D72AB630A0000330EF
:10052A00A100D72AE830A0000330A100D72ADB2097
:10053A00D72A2208463A0319452A2208423A0319B9
:10054A004F2A2208523A0319592A22084C3A031907
:10055A00632A2208533A03196D2A2208313A0319E9
:10056A006F2A2208323A0319742A2208333A0319E5
:10057A00792A2208343A03197E2A2208353A0319BD
:10058A00832A2208363A0319882A2208373A031995
:10059A008D2A2208383A0319922A2208393A03196D
:0A05AA00972A9C2A3B2A2D29D92A02
:02400E004A2F37
:00000001FF
